:020000040800F2
:10000000C80700209D010008B1100008AD100008CD
:10001000AF100008C9020008DD160008000000004B
:100020000000000000000000000000005111000866
:10003000CB02000800000000D31000085311000894
:10004000B7010008B7010008B7010008B7010008B0
:10005000B7010008B7010008B7010008B7010008A0
:10006000B7010008B7010008B7010008B701000890
:10007000B7010008B7010008B7010008B701000880
:10008000B7010008B7010008B7010008B701000870
:10009000B7010008B7010008B7010008B701000860
:1000A000B7010008B7010008B7010008B701000850
:1000B000B7010008B7010008B7010008B701000840
:1000C000B7010008B7010008B7010008B701000830
:1000D000B701000871160008B7010008B701000851
:1000E000B7010008B7010008B7010008B701000810
:1000F000B7010008B7010008B7010008B701000800
:10010000B7010008B7010008B7010008B7010008EF
:10011000B7010008B7010008B7010008B7010008DF
:10012000B7010008B7010008B7010008B7010008CF
:10013000B7010008B7010008B7010008B7010008BF
:10014000B7010008B7010008B7010008B7010008AF
:10015000B7010008B7010008B7010008B70100089F
:10016000B7010008B7010008B7010008B70100088F
:10017000B7010008B70100080000000000000000FF
:10018000B7010008B7010008DFF80CD000F082F8D2
:1001900000480047B11C0008C807002006488047F7
:1001A00006480047FEE7FEE7FEE7FEE7FEE7FEE75C
:1001B000FEE7FEE7FEE7FEE7D1110008890100082F
:1001C0002DE9F05F0546002092469B46884606468C
:1001D000814640241BE0284641464746224600F01F
:1001E00048F853465A46C01A914110D31146184652
:1001F000224600F02FF82D1A67EB01084F462246E1
:100200000120002100F026F817EB00094E41201EC6
:10021000A4F10104DFDC484631462A46434600F09B
:1002200000B830BCBDE8C09F30B50B460146002089
:100230002022012409E021FA02F59D4205D303FAA8
:1002400002F5491B04FA02F52844151EA2F1010229
:10025000F1DC30BD202A04DB203A00FA02F1002054
:1002600070479140C2F1200320FA03F319439040F4
:100270007047202A04DB203A21FA02F0002170475F
:1002800021FA02F3D040C2F12002914008431946FE
:1002900070470000064C074D06E0E06840F001039F
:1002A00094E8070098471034AC42F6D3FFF770FF8C
:1002B000A8240008C8240008EFF3108072B6704725
:1002C00080F3108870470000FEE7704701B5009882
:1002D000411E0091FBD208BD10B590F825100024F6
:1002E000022903D00421C16301241AE001680A68CD
:1002F00022F00E020A6001680A6822F001020A6018
:1003000090F84410036C01F01C02012101FA02F282
:100310005A6080F82510002180F82410816B01B10B
:100320008847204610BD00002DE9F84FDFF898B14E
:1003300000234FF0010C4FF0030A4FF00F090BF1AF
:10034000040EB9E00CFA03F4224070D04D68022D7F
:1003500001D0122D0ED1DD0800EB8508D8F8205011
:100360005E07F70E09FA07F6B5430E69BE402E4345
:10037000C8F8206007685E0091F804800AFA06F564
:1003800008F00308AF4308FA06F848EA0708C0F87F
:1003900000804F68012F05D0022F03D0112F01D00C
:1003A000122F13D1D0F80880CF6828EA0508B7408B
:1003B00047EA08078760D0F804800F7928EA040824
:1003C000C7F300179F4047EA08074760D1F8048049
:1003D0006FEA0807BF0706D1C76AA743C8F3C0047E
:1003E0009C403C43C462C468AC438D68B54025431F
:1003F000C5604C68E4005ED5344C256E45F00105BF
:100400002566246E23F0030504F001040094304CAB
:100410002E19B4689D072F0F09FA07F5AC43B0F108
:10042000904F05D02B4DA84204D101251CE042E09D
:10043000002519E0284DA84201D1022514E0274DDE
:10044000A84201D103250FE0254DA84201D1042582
:100450000AE0244DA84201D1052505E0224DA8421D
:1004600001D1062500E00725BD402543B560DBF836
:1004700000405D464E689443F60300D514432C605B
:10048000DEF8004075464E689443B60300D5144329
:100490002C600D4D08352C684E689443F60200D54B
:1004A00014432C60084D0C352C684E689443B602FA
:1004B00000D514432C605B1C0A6832FA03F57FF404
:1004C00041AF00F013B800000004014000100240EA
:1004D000000001400004004800080048000C0048EB
:1004E00000100048001400480018004818BCBDE87F
:1004F000E08F0069084000D00120704742694A40FF
:10050000426170470AB181617047816270470000A3
:1005100001480068704700000000002002480168A0
:10052000491C0160704700000000002010B5002445
:10053000032000F08FF8002000F008F808B1012433
:1005400001E000F01BF8204610BD000070B5054624
:1005500009484FF47A7100240068B0FBF1F000F014
:1005600009FC08B1012404E000222946501E00F0D5
:1005700051F8204670BD0000040000201E4808B558
:10058000016E41F001010166016E01F0010100916F
:10059000816D41F080518165806D00F08050009048
:1005A000032000F057F8002211466FF00B0000F016
:1005B00031F8002211466FF00A0000F02BF80022FB
:1005C00011466FF0090000F025F800221146501F77
:1005D00000F020F800221146101F00F01BF8002246
:1005E0001146901E00F016F80022BDE808401146A2
:1005F000501E00F00FB800000010024000F01F0273
:10060000012191404009800000F1E020C0F8001174
:1006100070470000F0B40E4B1B680C46C3F3022376
:10062000C3F10705042D00D90425191D072901D29E
:10063000002300E0DB1E012606FA05F1491E2140D9
:1006400099409E40761E16403143F0BC00F031BD0B
:100650000CED00E0064900F0070208684FF6FF03C2
:10066000184040EA0220034A104308607047000027
:100670000CED00E00000FA051649B0F5007F0868AF
:10068000C0F3412009D0022805D0086820F4C060DA
:1006900040F480600860002070470128FBD00868A3
:1006A00020F4C06040F4007008600B4832220068FB
:1006B00050430A4AB0FBF2F0401C00E0401E4A6979
:1006C000520501D50028F9D148694005E3D503203A
:1006D00070470000007000400400002040420F00FE
:1006E0000248006800F4C0607047000000700040DD
:1006F0002DE9F0470F46050058D03F4E306800F016
:100700000700B84209D2306820F007003843306053
:10071000306800F00700B84248D12878374CC0074D
:100720002CD06868032811D0022812D0216898B113
:10073000490500293ADAA16821F003010143A160CB
:10074000FFF7E6FE804641F2883910E02168890112
:10075000EFE721688903ECE78907EAE7FFF7D8FEAE
:10076000A0EB0801494502D90320BDE8F087A06845
:10077000696800F00C00B0EB810FEFD1287880079A
:1007800005D5A068A96820F0F0000843A060306893
:1007900000F00700B8420BD9306820F0070038435A
:1007A0003060306800F00700B84201D00120DCE77B
:1007B0002878400705D5A068E96820F4E060084380
:1007C000A0602878000706D5A068296920F4605049
:1007D00040EAC100A06000F03BF8A168084AC1F3FC
:1007E0000311515C01F01F01C84006490860BDE8D3
:1007F000F0470020FFF7AABE002002400010024090
:100800004C23000804000020054806490068896858
:10081000054AC1F30221515C01F01F01C840704735
:1008200004000020001002408C23000805480649FF
:1008300000688968054AC1F3C221515C01F01F01BB
:10084000C840704704000020001002408C230008BC
:1008500070B52549002318468A68CC6812F00C024E
:1008600004F00306214C4FEA640509D00C2A05D098
:10087000042A26D0082A00D1284670BD012E10D1A6
:100880000B681B0704D4D1F89430C3F3032302E0B0
:100890000B68C3F30313164E56F823307AB10C2AB3
:1008A000EBD1C86800F00302C868C0F30210401C16
:1008B000022A08D0032A09D0B3FBF0F008E018465A
:1008C00070BD204670BDB4FBF0F001E0B5FBF0F068
:1008D000CA68C968C2F306225043C1F34161491C8A
:1008E0004900B0FBF1F070BD001002400024F4009C
:1008F0005C2300082DE9F84305007CD0FD4CA0687E
:1009000000F00C06E06800F003072878C00661D507
:1009100076B10C2E01D1012F0AD0A86900282068D9
:1009200078D040F001002060FFF7F2FD804659E0EA
:100930002068800702D5A8690028DED0286A2168CF
:10094000090703D5216801F0F00104E0D4F8941000
:10095000F02202EA1111884215D900F0BBFB0028F1
:1009600049D1206840F0080020602068296A20F002
:10097000F000084320606068E96920F47F4040EAA5
:100980000120606015E0206840F0080020602068C9
:10099000296A20F0F000084320606068E96920F4CB
:1009A0007F4040EA01206060286A00F093FB002845
:1009B000D6D1FFF74DFFA168CF4AC1F30311515CB7
:1009C00001F01F01C840CD4908600020FFF7BEFDBF
:1009D00000287DD12FE000BFFFF79AFDA0EB0800B3
:1009E000022876D820688007F6D5206840F00800F5
:1009F0002060206801E0BBE00CE0296A20F0F000F4
:100A0000084320606068E96920F47F4040EA0120E3
:100A1000606010E020F001002060FFF779FD804663
:100A200006E000BFFFF774FDA0EB08000228D8D84D
:100A300020688007F6D42878C00740D0082E18D048
:100A40000C2E01D1032F14D06868B0F5803F17D069
:100A5000B0F5A02F206817D020F4803020602068E7
:100A600020F4802020606868E0B1FFF751FD8046E7
:100A700014E02068800322D56868002878D01EE042
:100A8000206840F48030EDE740F480202060F7E7F4
:100A9000FFF73EFDA0EB08006428A2D82068800381
:100AA000F6D50CE0FFF734FD804605E0FFF730FD9A
:100AB000A0EB0800642894D820688003F6D4287836
:100AC00080073BD5042E11D00C2E04D1022F01E05B
:100AD00036E1A1E00AD0E868002820681ED040F482
:100AE00080702060FFF714FD07460CE02068400589
:100AF0000CD5E8680028C1D008E000BFFFF708FD6A
:100B0000C01B022893D820684005F7D56068297C6F
:100B100020F0F85040EA016060600FE020F480703F
:100B20002060FFF7F5FC074605E000BFFFF7F0FC8B
:100B3000C01B022870D820684005F7D42878000729
:100B400029D568690028D4F8940012D040F001003B
:100B5000C4F89400FFF7DCFC074604E0FFF7D8FC7C
:100B6000C01B022858D8D4F894008007F6D512E0AC
:100B7000EDE020F00100C4F89400FFF7C9FC07463F
:100B800005E000BFFFF7C4FCC01B022844D8D4F81E
:100B900094008007F6D42878400768D5A06D002718
:100BA000C00008D4A06D40F08050A065A06D012762
:100BB00000F08050009052480168C90512D40168C5
:100BC000814641F480710160FFF7A2FC804605E098
:100BD000FFF79EFCA0EB080002281DD8D9F8000002
:100BE000C005F5D5A868012817D00528D4F89000CD
:100BF00018D020F00100C4F89000D4F8900020F044
:100C0000040000BFC4F89000A86841F28839D0B150
:100C1000FFF77EFC804611E06BE0D4F8900040F0D6
:100C20000100EFE740F00400C4F89000F5E700BFD2
:100C3000FFF76EFCA0EB080149455AD8D4F89000A4
:100C40008007F5D50EE0FFF763FC804606E000BFA5
:100C5000FFF75EFCA0EB0801494570D8D4F890007E
:100C60008007F5D41FB1A06D20F08050A065A86A60
:100C7000F0B30C2E6BD00228206820F0807020602A
:100C800004D0206810F0205F47D04AE0FFF740FC16
:100C9000064604E0FFF73CFC801B02284FD8206882
:100CA0008001F7D4286BE96A000110380843696BAA
:100CB000AA6B0902120941EA42410843A98F114A6D
:100CC000490802EB4151084395F8401049081201C8
:100CD00002EB41610843E060206840F080702060D2
:100CE000E06840F08070E060FFF712FC054610E01D
:100CF0002BE024E0001002404C23000804000020F8
:100D0000007000400000E0FFFFF702FC401B0228DB
:100D100015D820688001F7D517E0E06820F00300BF
:100D2000E060E0680B490840E060FFF7F1FB054632
:100D300008E000BFFFF7ECFB401B022802D90320AC
:100D4000BDE8F88320688001F4D40020F8E7012092
:100D5000F6E70000FFFFEEFE10B5FFF7ADFA044C1A
:100D6000206001F08DFA2068BDE81040FFF7A8BAB6
:100D70000C00002010B5401EB0F1807F01D301208F
:100D800010BD4FF0E02460610F21601700F091F971
:100D90000020A06107202061002010BD10B5FFF7E2
:100DA000DBFF10BD704770472DE9F0410268044633
:100DB000D0691168936810F00F0F4FF000055BD0F9
:100DC00003F0010601F49077374369D0C70707D0D5
:100DD000CF0505D501271762626F42F001026267F5
:100DE000820708D5DA0706D0276802223A62626FC6
:100DF00042F004026267420708D5DA0706D023688A
:100E000004221A62626F42F00202626702070AD588
:100E100001F02002324306D0236808221A62626F72
:100E200042F008026267626F002A32D0800605D560
:100E3000880603D5216E09B120468847606F0007F8
:100E400003D420688068400625D5204600F07EFA4D
:100E500020688168490619D5816821F040018160C8
:100E6000E06E98B120498163E06EFFF735FA002803
:100E70000FD0E06E816B06E0860611D58E060FD589
:100E8000216E1EE02046BDE8F04108472046FFF7EE
:100E90008AFFBDE8F0812046FFF785FF6567F8E728
:100EA000C60209D55B0207D54FF4801010622046B8
:100EB000BDE8F041FFF776BF030605D50B0603D565
:100EC000616E0029DED1E4E74006E2D54806E0D5B0
:100ED0001168204621F040011160202184F8711032
:100EE000656600F0E2F8D4E73913000810B5040095
:100EF00003D094F8710010B107E0012010BD00206C
:100F000084F87000204600F027F8242084F871004F
:100F10002068016821F001010160204600F026FAF6
:100F20000128EBD0606A10B1204600F073F9206808
:100F3000416821F4904141602068816821F02A01D4
:100F400081602068016841F0010101602046BDE830
:100F5000104000F0C3B9000010B50068164986B013
:100F6000884227D11548C16C41F00101C164C16CB0
:100F700001F001010591016E41F480410166006EAE
:100F8000012100F4804005904FF400700090022091
:100F9000CDE90101039007204FF090440490694689
:100FA0002046FFF7C1F94FF4806000906946204663
:100FB000FFF7BAF906B010BD00380140001002403A
:100FC0002DE9F84F044690F872009A4616460D46F1
:100FD000202865D1EDB1E6B194F8700001285FD00A
:100FE000012084F8700000276767222084F87200CF
:100FF0005434FFF78DFAA6808146E68054F84C0CF5
:101000004FF48058FF21543C404508D1206918B165
:101010000DE0012000F046B840F2FF100DE07F2205
:1010200018B1B0F1805F05D009E0206950B9A4F88B
:101030005C1004E0206928B13F20A4F85C00B4F8FB
:101040005C601CE0A4F85C20F9E74B4600222021FC
:101050002046CDF800A000F0D9FA08B10320D9E766
:10106000A068404501D12069A0B12068808C304043
:1010700005F8010BB4F85A00401EA4F85A00B4F861
:101080005A000028E1D1202084F8720084F87070A2
:101090000020BFE72068808C304025F8020BE9E78C
:1010A0000220B7E718BCBDE8E08F7047FEE7FEE717
:1010B00070470907090E002806DA00F00F0000F15A
:1010C000E02080F8141D704700F1E02080F8001443
:1010D00070477047F8B51C4D06460024A86DC00047
:1010E00002D5FFF7FDFA0DE0A86D40F08050A8652D
:1010F000A86D00F080500090FFF7F2FAA96D21F082
:101100008051A965B0F5007F04D0802E07D94FF03B
:1011100003040AE0802E08D9A02E01D804E001D1F2
:10112000022402E0702E00D101240848016821F059
:10113000070121430160006800F00700A04201D0D0
:101140000120F8BD0020F8BD001002400020024040
:10115000704710B5FFF7E2F9BDE81040FFF71EBE7B
:101160001A4810B5816D98B041F080518165806D4D
:10117000012100F0805016900804CDE900100220F3
:1011800003240A90CDE90B4114210D910721CDE9EB
:101190000E1010906846FFF7ADFB00B1FEE70F2080
:1011A000CDE911040020139014901590042111A88A
:1011B000FFF79EFA00B1FEE74FF40070FFF75CFA0C
:1011C000002800D0FEE718B010BD0000001002405B
:1011D0000D48016841F4700101600C48016841F05C
:1011E00001010160002181600268094B1A40026020
:1011F0008214C260026822F4802202608161024986
:10120000C00380390860704788ED00E0001002409C
:10121000FFFFF6EA90F82410C90706D001684A6873
:10122000836A22F400321A434A6090F82410890736
:1012300006D501684A68C36A22F480321A434A60BC
:1012400090F82410490706D501684A68036B22F418
:1012500080221A434A6090F82410090706D50168D5
:101260004A68436B22F400421A434A6090F8241003
:10127000C90606D501688A68836B22F480521A4336
:101280008A6090F82410890606D501688A68C36BC5
:1012900022F400521A438A6090F82410490611D5AE
:1012A00001684A68036C22F480121A434A60016C98
:1012B000B1F5801F06D101684A68436C22F4C00270
:1012C0001A434A6090F82410090606D501684A6856
:1012D000806C22F4002202434A607047F8B5002671
:1012E00004464667FFF714F90546206800686FF06A
:1012F0007E47000708D52B4600224FF400112046F8
:10130000009700F083F960B92068006840070AD5AB
:101310002B4600224FF480012046009700F076F91A
:1013200008B10320F8BD202084F8710084F8720011
:1013300084F870600020F8BD10B5806A0021A0F824
:101340005A10A0F85210FFF72EFD10BD01680A6870
:1013500022F490720A6001688A6822F001028A60B1
:10136000202180F872100021016670472DE9F041BC
:101370000446016880682369E6691843636910259B
:10138000002733431843954A0B68954E3340034377
:101390000B6020684168E36821F4405119434160C3
:1013A0002168A069914201D0236A18438B6823F415
:1013B000306303438B608B4B21688B4899420DD17E
:1013C000D0F8880010F0030006D001285AD0022877
:1013D00056D0032859D157E0012556E0834B994256
:1013E0000BD1D0F8880010F00C0047D0042849D069
:1013F000082845D00C2848D146E07D4B99420BD1B6
:10140000D0F8880010F0300038D010283AD02028CA
:1014100036D0302839D137E0764B99420BD1D0F80D
:10142000880010F0C00029D040282BD0802827D079
:10143000C0282AD128E0704B99420ED1D0F88800FC
:1014400010F440701AD0B0F5807F1BD0B0F5007F4B
:1014500016D0B0F5407F18D116E0914215D1D0F8E2
:10146000880010F4406009D0B0F5806F0AD0B0F564
:10147000006F05D0B0F5406F07D105E0002504E00E
:10148000022502E0042500E008255C4B00264FF40D
:10149000004091423DD135B1022D07D0042D07D037
:1014A000082D10D107E0FFF7AFF903E0184602E07E
:1014B000FFF7CEF9A8B3626802EB4201814202D87D
:1014C000B0EB023F01D9012775E0DFF834815DB14F
:1014D000022D0CD0042D13D0082DF4D1500829056D
:1014E000401846F1000105E0FFF78EF90AE05008C8
:1014F0004449F5E70023FEF763FEA0F5407156E08E
:10150000FFF7A6F96268010E03025008181871412E
:10151000F0E7E1694FF6EF7881422FD1092DD2D261
:1015200000E048E0DFE805F0060920052305050591
:101530002600C8E7FFF768F901E0FFF777F94100F7
:10154000D4F8040001EB5001B1FBF0F080B2A0F13F
:1015500010014145B7D84FF6F0710140C0F3420089
:1015600001432068C16026E027496068EAE7FFF789
:101570006FF9E4E74FF480316068E3E7092DA2D208
:10158000DFE805F006091E052205050525009AE796
:10159000FFF73AF901E0FFF749F90146606801EB0E
:1015A000500100BFB1FBF0F080B2A0F11001414545
:1015B00089D82168C860266638466666BDE8F0812D
:1015C000606803EB5001EDE7FFF742F9E5E761687A
:1015D00000EB5100B0FBF1F0E6E7000000800040B6
:1015E000F369FFEF00380140001002400044004062
:1015F00000480040004C0040005000400024F4002F
:10160000FFFC0F00000024F40048E8012DE9F04140
:10161000984617460E460446069D1DE0681C1BD0E2
:101620002DB1FEF775FFA0EB0800A84214D9206881
:10163000016821F4D07101602068816821F0010106
:101640008160202084F8710084F87200002084F802
:1016500070000320BDE8F0812068C06936EA000010
:1016600004D00020B842D9D00020F3E70120F9E7E8
:1016700038B518480068C069C043800622D44FF4CA
:101680007A73012269461348FFF79AFC12480188D1
:101690000A0417D44B049DF800304FF0000204D523
:1016A0000A2B0ED141F4004112E00D2B0ED0C1F3F4
:1016B0000D04084D491CC83D89B22B550180C7292E
:1016C00000D902800348FFF76FFB38BD41F4804129
:1016D0000180F7E750030020B8000020FEE700007B
:1016E0000FB4054B10B503A9044A029800F03AF86C
:1016F00010BC5DF814FB0000251B0008BC00002096
:10170000002807D00E4910F0FF0F04D051FA80F0E6
:101710000078401C704710F47F4F04D0C0F30720BE
:10172000085C0930704710F47F0F04D0C0F3074005
:10173000085C1130704701EB106000781930704779
:101740009423000802E008C8121F08C1002AFAD139
:1017500070477047002001E001C1121F002AFBD131
:10176000704700002DE9FF4F8BB09A460F460546A3
:10177000002606E025280BD052460D9990476D1C97
:10178000761C28780028F5D10FB0304600F0C6B896
:101790000024A0460122604900E0044315F8013FFF
:1017A000203B02FA03F00842F7D128782E2817D1FF
:1017B00015F8010F44F004042A280ED06FF02F0210
:1017C0002878A0F1300109290AD808EB880102EB3A
:1017D000410100EB01086D1CF2E757F8048B6D1C0A
:1017E000287869283ED006DC0028CDD063280BD0AD
:1017F000642804D136E0732810D075284BD05246A7
:101800000D999047761C85E017F8040B8DF80000C1
:1018100000208DF80100E946012003E057F8049B01
:101820004FF0FF3061074FF0000401D40AE0641C60
:1018300044450DDA8442FADB19F804100029F6D188
:1018400006E0641C8442FCDB19F804100029F8D17E
:10185000264404E019F8010B52460D999047641E86
:10186000F8D257E001CF4FF00A0B002802DA4042CD
:101870002D2102E0210504D52B218DF82410012112
:1018800003E0E10705D02021F7E70DF120090891D9
:101890000CE00021F9E701CF4FF00A0BF9E75946B8
:1018A000FEF7C2FC01F1300209F8012D0028F6D143
:1018B000ADEB090000F1200B600701D44FF00108E7
:1018C000D84502DDA8EB0B0000E000208046002494
:1018D00006E009A85246005D0D999047641C761CED
:1018E00008988442F5DB04E0302052460D99904779
:1018F000761CB8F10001A8F10108F5DC05E019F843
:10190000010B52460D999047761CBBF10001ABF1DB
:10191000010BF4DC6D1C34E70928010030BCBDE884
:10192000C08F00000E4810B5C16C86B041F00201B6
:10193000C164C06C0B4C00F00200059004200090C4
:101940000120019002200290039069462046FEF794
:10195000EBFC002204212046FEF7D4FD06B010BDAA
:1019600000100240000400482DE9F041114C2568A8
:101970002C6806E0E668964202D1267A8E4202D0B2
:101980002468A542F6D10B4EA5427668334406D0B2
:101990002CB12046636100F084F9204604E0017216
:1019A0004361C2600060406000F0B0FC0020BDE810
:1019B000F08100001000002070B50D46044620287C
:1019C00012D2FEF779FC094951F82420536A2B43BF
:1019D000536251F824104A6905490B681A430A609A
:1019E000FEF76EFC002070BDFF2070BDC00000201F
:1019F000240000202DE9F0411D4616460F46804682
:101A0000FEF75AFC04462B46324639464046FFF75D
:101A1000ABFF2046FEF754FC0020BDE8F08110B576
:101A200000F05AF8BDE810404FF4E13000F04CBC33
:101A30002DE9F041FEF740FC224E03463068FFF7E7
:101A40005FFE471E202F01D9184636E01E4800EBE6
:101A5000C7051846FEF734FC002D0AD02C68AC42AE
:101A600009D16968A14206D101203168B84081439B
:101A70003160BDE8F081154F14E0ACB1606A20B16F
:101A8000A16811B120463C6088472068A84208D16F
:101A9000FEF712FC6269316891433160FEF710FC79
:101AA00002E00446AC42E8D1AC42E2D1FEF704FCCD
:101AB00061684A69316891433160BDE8F041FEF7E1
:101AC000FFBB00002400002040010020080000208F
:101AD000FFF7AEFFFCE7000070B5114A002000BF21
:101AE00002EBC0010960401CC0B249602028F7D356
:101AF000002000F063F9002000F0C4FA002000F09C
:101B000021FB074D0024803D55F8240010B1016AE7
:101B100001B18847641CE4B2202CF5D370BD0000ED
:101B20004001002004490A685206FCD5024AC1B2AD
:101B30000C321180704700001C3801400249486097
:101B4000007C0121FFF738BF28000020064910B5AE
:101B50004860017C02231A460448FFF74BFFBDE8AA
:101B60001040FFF7DFBE00005800002058020020A0
:101B7000064910B54860017C032301220448FFF7A1
:101B800039FFBDE8104000F005B8000088000020D3
:101B90007002002030B5164887B0C16C41F00401D6
:101BA000C164C16C01F004010591C16C41F00801F0
:101BB000C164C06C002400F0080005904FF4E060A0
:101BC000CDE9000402200325CDE902056946094854
:101BD000FEF7AAFB4FF40050CDE900040120CDE947
:101BE000020569460448FEF79FFB07B030BD0000C0
:101BF00000100240000C0048000800482DE9F05F8A
:101C00000126234CB702DFF88CB0234D4FF4007847
:101C10004FF480794FF4005A01281DD06078A0B1AC
:101C200039462846FEF765FCC0B141462846FEF716
:101C300060FC98B149462846FEF75BFC70B15146FE
:101C40005846FEF756FC012808D039462846FEF7CC
:101C500050FC012804D014E06670E1E7072014E08E
:101C600041462846FEF745FC01280AD14946284648
:101C7000FEF73FFC012804D151465846FEF739FCD7
:101C800010B1002000F00AB830466070FAE700009A
:101C90008800002000080048000C004830BCBDE867
:101CA000C09FD0E900124A60116000604060704738
:101CB00086B0FEF73BFCFFF753FA2848C16C41F0B1
:101CC0008001C164C16C01F080010591C16C41F0DB
:101CD0001001C164C06C224C00F010004FF460751C
:101CE0000590012229462046FEF70CFC0120CDE993
:101CF000005002900220039069462046FEF714FB34
:101D0000FFF78DFEFFF7E4FE4FF48075154F6E0070
:101D1000012280212046FEF7F5FB012229462046BC
:101D2000FEF7F0FB012231462046FEF7EBFB38467A
:101D3000FEF7CCFA002280212046FEF7E3FB0022CA
:101D400029462046FEF7DEFB002231462046FEF7FC
:101D5000D9FB3846FEF7BAFADAE700000010024075
:101D600000100048FFFF7F0010B5124C4FF4806157
:101D70002046FEF7BEFBA0B14FF400712046FEF7EF
:101D8000B8FB80B14FF480712046FEF7B2FB60B122
:101D90004FF400510848FEF7ACFB012807D00020A3
:101DA00010BD012010BD022010BD032010BD042075
:101DB00010BD0000000C004800080048014800F079
:101DC00037BA0000300000202DE9F041AA4C4FF452
:101DD00000764FF4FA7860684FF48075416AA7483E
:101DE000CA0728D0002280210746FEF78BFB01227C
:101DF00029463846FEF786FB012231463846FEF773
:101E000081FB2078401CC0B2207002280DD8607879
:101E100058B1606843460222017C9948FFF7EAFD09
:101E20006068416A81F0010123E160680A234FF094
:101E30008052017CF1E78A071DD5012280210746E7
:101E4000FEF760FB002229463846FEF75BFB0122C5
:101E500031463846FEF756FB6078012806D16068A7
:101E600043460422017C8648FFF7C4FD6068416A4E
:101E700081F00201FDE04A071DD5012280210746BD
:101E8000FEF740FB012229463846FEF73BFB0022C5
:101E900031463846FEF736FB6078012806D1606887
:101EA00043460822017C7648FFF7A4FD6068416A3A
:101EB00081F00401DDE00A071DD5002280210746DC
:101EC000FEF720FB002229463846FEF71BFB0122C5
:101ED00031463846FEF716FB6078012806D1606867
:101EE00043462022017C6648FFF784FD6068416A12
:101EF00081F00801BDE08A061DD501228021074638
:101F0000FEF700FB002229463846FEF7FBFA0022C6
:101F100031463846FEF7F6FA6078012806D1606847
:101F200043464022017C5648FFF764FD6068416AE1
:101F300081F020019DE04A061DD500228021074640
:101F4000FEF7E0FA012229463846FEF7DBFA0022C6
:101F500031463846FEF7D6FA6078012806D1606827
:101F600043468022017C4648FFF744FD6068416A91
:101F700081F040017DE00A061DD500228021074640
:101F8000FEF7C0FA002229463846FEF7BBFA0022C7
:101F900031463846FEF7B6FA6078012806D1606807
:101FA00043462A46017C3648FFF724FD6068416AB3
:101FB00081F080015DE0CA051DD501228021074620
:101FC000FEF7A0FA012229463846FEF79BFA0122C5
:101FD00031463846FEF796FA6078012806D16068E7
:101FE00043460122017C2648FFF704FD6068416AF0
:101FF00081F480713DE08A0510D580210746FEF707
:102000007DFA29463846FEF779FA31463846FEF71A
:1020100075FA6068416A81F400712AE04A0507D5C3
:102020002946FEF76BFA6068416A81F4806120E01E
:102030000A0507D53146FEF761FA6068416A81F406
:10204000006116E0C90015D50021617001228021D0
:102050000746FEF757FA012229463846FEF752FA9C
:10206000012231463846FEF74DFA6068416A81F038
:1020700080514162BDE8F081280000200010004836
:1020800040020020014800F0D3B8000060000020AA
:1020900070B5294C4FF4FA756068416A2748CA0741
:1020A0001DD001220421FEF72DFA2078401CC0B279
:1020B000207003280DD8607858B160682B46022242
:1020C000017C1F48FFF796FC6068416A81F00101BE
:1020D00030E060680A234FF08052017CF1E78A0704
:1020E00012D500220421FEF70DFA6078012806D1EE
:1020F00060682B460122017C1148FFF77BFC606879
:10210000416A81F0020115E04A0707D50421FEF774
:10211000F5F96068416A81F004010BE0C9000AD555
:10212000002161700A460421FEF7ECF96068416AFB
:1021300081F08051416270BD5800002000040048C9
:1021400058020020014800F073B800009000002001
:1021500010B52F4C6068406AC10728D00020FFF7F7
:102160004DFD072817D16B222A492BA0FFF7B8FA9B
:10217000002060702078401C2070C0070BD17122B5
:10218000244925A0FFF7ACFA60680A230222017CEB
:102190002448FFF72FFC60680A230122017C2148B4
:1021A000FFF728FC6068416A81F0010126E08007A2
:1021B00025D57C22174918A0FFF792FAFFF7D4FD26
:1021C0001949A07001281FD0022819D0032805D072
:1021D000042808D115480421007C02E0087C4FF453
:1021E0008061FFF7E9FB60680A230122017C0D484A
:1021F000FFF700FC6068416A81F00201416210BD96
:10220000087C4FF40071ECE7087C4FF40061E8E7CC
:1022100088000020942400085B25732025645D203D
:102220000D0A000070020020300000206000002035
:10223000124A002152F8213033B1491C2029F9DB20
:10224000202917D00020704742F821000174427CF9
:10225000012393404361836913B90A238361C361F6
:10226000064B803303EBC20253685060C0E9002381
:102270001860E5E74FF0FF3070470000C000002015
:102280002DE9F0410E4845686D1C4560FEF714F8D5
:102290000B4E80460C360B4F0AE06069281AB84294
:1022A00009D22046FFF7FDFC207AE168FFF784FBA6
:1022B0003468B442F1D14046BDE8F041FEF700B8C1
:1022C000100000205034030010B50F4C0D49C4E934
:1022D00000100020A060E0602061A0610C2060611F
:1022E0002046FEF703FE2068016841F020010160EE
:1022F0002520FEF783F90322BDE810401146252072
:10230000FEF788B9003801405003002070B50D4930
:102310000D4D0A46546807E00A68466953699B1BDD
:1023200001D0AB4202D311468C42F5D1054A0C3A9A
:1023300093685B1C93600A685060C0E900210860E4
:10234000002070BD1C00002050340300000000007D
:10235000000000000102030406070809A08601002E
:10236000400D0300801A060000350C0040420F00AB
:1023700080841E0000093D0000127A000024F40051
:1023800000366E010048E801006CDC02000000002D
:10239000010203040000010002000100030001002B
:1023A000020001000400010002000100030001001E
:1023B000020001000500010002000100030001000D
:1023C00002000100040001000200010003000100FE
:1023D00002000100060001000200010003000100EC
:1023E00002000100040001000200010003000100DE
:1023F00002000100050001000200010003000100CD
:1024000002000100040001000200010003000100BD
:1024100002000100070001000200010003000100AA
:10242000020001000400010002000100030001009D
:10243000020001000500010002000100030001008C
:10244000020001000400010002000100030001007D
:10245000020001000600010002000100030001006B
:10246000020001000400010002000100030001005D
:10247000020001000500010002000100030001004C
:10248000020001000400010002000100030001003D
:10249000020001007461736B325F70726F63657369
:1024A000735F666E00000000C82400080000002072
:1024B000C00000004417000888250008C000002064
:1024C00008070000541700080000000000093D0044
:1024D00000000000000000001C00002000000000C0
:1024E000000000001C0000201C0000200100000073
:1024F00000010000000000000000000000000000DB
:10250000C91D0008000000000000000000000000DD
:1025100003000000000000003D1B00080000000058
:1025200000010000000000000000000000000000AA
:102530009120000800000000001F000000000000C3
:1025400002000000000000004D1B00080200000017
:10255000000000000000000000000000000000007B
:1025600051210008000000000005000000000000EC
:102570000100000000000000711B000803000000C3
:08258000000000000000000053
:040000050800018965
:00000001FF
