:020000040800F2
:10000000800600209D010008350C0008310C000816
:10001000330C0008F5010008A10D000800000000E5
:10002000000000000000000000000000D50C0008E7
:10003000F701000800000000570C0008D70C00086A
:10004000B7010008B7010008B7010008B7010008B0
:10005000B7010008B7010008B7010008B7010008A0
:10006000B7010008B7010008B7010008B701000890
:10007000B7010008B7010008B7010008B701000880
:10008000B7010008B7010008B7010008B701000870
:10009000B7010008B7010008B7010008B701000860
:1000A000B7010008B7010008B7010008B701000850
:1000B000B7010008B7010008B7010008B701000840
:1000C000B7010008B7010008B7010008B701000830
:1000D000B7010008B7010008B7010008B701000820
:1000E000B7010008B7010008B7010008B701000810
:1000F000B7010008B7010008B7010008B701000800
:10010000B7010008B7010008B7010008B7010008EF
:10011000B7010008B7010008B7010008B7010008DF
:10012000B7010008B7010008B7010008B7010008CF
:10013000B7010008B7010008B7010008B7010008BF
:10014000B7010008B7010008B7010008B7010008AF
:10015000B7010008B7010008B7010008B70100089F
:10016000B7010008B7010008B7010008B70100088F
:10017000B7010008B70100080000000000000000FF
:10018000B7010008B7010008DFF80CD000F018F83C
:1001900000480047591000088006002006488047A4
:1001A00006480047FEE7FEE7FEE7FEE7FEE7FEE75C
:1001B000FEE7FEE7FEE7FEE75D0D000889010008A7
:1001C000064C074D06E0E06840F0010394E80700A4
:1001D00098471034AC42F6D3FFF7DAFF64160008F4
:1001E00084160008EFF3108072B6704780F3108811
:1001F00070470000FEE7704701B50098411E00916E
:10020000FBD208BD2DE9F84FDFF898B100234FF07D
:10021000010C4FF0030A4FF00F090BF1040EB9E087
:100220000CFA03F4224070D04D68022D01D0122D3B
:100230000ED1DD0800EB8508D8F820505E07F70ED8
:1002400009FA07F6B5430E69BE402E43C8F8206090
:1002500007685E0091F804800AFA06F508F00308C2
:10026000AF4308FA06F848EA0708C0F800804F686C
:10027000012F05D0022F03D0112F01D0122F13D13F
:10028000D0F80880CF6828EA0508B74047EA080791
:100290008760D0F804800F7928EA0408C7F30017B4
:1002A0009F4047EA08074760D1F804806FEA0807D3
:1002B000BF0706D1C76AA743C8F3C0049C403C43AC
:1002C000C462C468AC438D68B5402543C5604C68C2
:1002D000E4005ED5344C256E45F001052566246E9C
:1002E00023F0030504F001040094304C2E19B46887
:1002F0009D072F0F09FA07F5AC43B0F1904F05D0D9
:100300002B4DA84204D101251CE042E0002519E054
:10031000284DA84201D1022514E0274DA84201D161
:1003200003250FE0254DA84201D104250AE0244D04
:10033000A84201D1052505E0224DA84201D106259C
:1003400000E00725BD402543B560DBF800405D4671
:100350004E689443F60300D514432C60DEF8004049
:1003600075464E689443B60300D514432C600D4D7A
:1003700008352C684E689443F60200D514432C606F
:10038000084D0C352C684E689443B60200D51443D2
:100390002C605B1C0A6832FA03F57FF441AF00F071
:1003A00013B80000000401400010024000000140AA
:1003B0000004004800080048000C004800100048F5
:1003C000001400480018004818BCBDE8E08F0AB1CE
:1003D0008161704781627047014800687047000082
:1003E0000000002002480168491C016070470000BD
:1003F0000000002010B50024032000F083F8002046
:1004000000F008F808B1012401E000F01BF82046D4
:1004100010BD000070B5054609484FF47A710024FC
:100420000068B0FBF1F000F0EBFB08B1012404E040
:1004300000222946501E00F045F8204670BD0000FD
:10044000040000201E4808B5016E41F0010101665C
:10045000016E01F001010091816D41F080518165D3
:10046000806D00F080500090032000F04BF80022D7
:1004700011466FF00B0000F025F8002211466FF0D6
:100480000A0000F01FF8002211466FF0090000F08A
:1004900019F800221146501F00F014F800221146EE
:1004A000101F00F00FF800221146901E00F00AF80D
:1004B0000022BDE808401146501E00F003B80000BD
:1004C00000100240F0B40E4B1B680C46C3F302232D
:1004D000C3F10705042D00D90425191D072901D2F0
:1004E000002300E0DB1E012606FA05F1491E21402B
:1004F00099409E40761E16403143F0BC00F09BBBF5
:100500000CED00E0064900F0070208684FF6FF0313
:10051000184040EA0220034A104308607047000078
:100520000CED00E00000FA051649B0F5007F086800
:10053000C0F3412009D0022805D0086820F4C0602B
:1005400040F480600860002070470128FBD00868F4
:1005500020F4C06040F4007008600B48322200684C
:1005600050430A4AB0FBF2F0401C00E0401E4A69CA
:10057000520501D50028F9D148694005E3D503208B
:1005800070470000007000400400002040420F004F
:100590000248006800F4C06070470000007000402E
:1005A0002DE9F0470F46050058D03F4E306800F067
:1005B0000700B84209D2306820F0070038433060A5
:1005C000306800F00700B84248D12878374CC0079F
:1005D0002CD06868032811D0022812D0216898B165
:1005E000490500293ADAA16821F003010143A1601D
:1005F000FFF7F2FE804641F2883910E02168890158
:10060000EFE721688903ECE78907EAE7FFF7E4FEF3
:10061000A0EB0801494502D90320BDE8F087A06896
:10062000696800F00C00B0EB810FEFD128788007EB
:1006300005D5A068A96820F0F0000843A0603068E4
:1006400000F00700B8420BD9306820F007003843AB
:100650003060306800F00700B84201D00120DCE7CC
:100660002878400705D5A068E96820F4E0600843D1
:10067000A0602878000706D5A068296920F460509A
:1006800040EAC100A06000F01DF8A168084AC1F36B
:100690000311515C01F01F01C84006490860BDE824
:1006A000F0470020FFF7B6BE0020024000100240D5
:1006B000241500080400002001480068704700006D
:1006C0000400002070B52549002318468A68CC68CC
:1006D00012F00C0204F00306214C4FEA640509D025
:1006E0000C2A05D0042A26D0082A00D1284670BD3D
:1006F000012E10D10B681B0704D4D1F89430C3F33A
:10070000032302E00B68C3F30313164E56F823309D
:100710007AB10C2AEBD1C86800F00302C868C0F3B4
:100720000210401C022A08D0032A09D0B3FBF0F0C3
:1007300008E0184670BD204670BDB4FBF0F001E043
:10074000B5FBF0F0CA68C968C2F306225043C1F392
:100750004161491C4900B0FBF1F070BD001002403E
:100760000024F400341500082DE9F84305007CD07E
:10077000FD4CA06800F00C06E06800F00307287844
:10078000C00661D576B10C2E01D1012F0AD0A8691F
:100790000028206878D040F001002060FFF71CFEA0
:1007A000804659E02068800702D5A8690028DED07D
:1007B000286A2168090703D5216801F0F00104E0E7
:1007C000D4F89410F02202EA1111884215D900F0F1
:1007D00043FA002849D1206840F0080020602068D2
:1007E000296A20F0F000084320606068E96920F47D
:1007F0007F4040EA0120606015E0206840F008007A
:1008000020602068296A20F0F000084320606068BA
:10081000E96920F47F4040EA01206060286A00F026
:100820001BFA0028D6D1FFF74DFFA168CF4AC1F3CC
:100830000311515C01F01F01C840CD490860002040
:10084000FFF7E8FD00287DD12FE000BFFFF7C4FDD2
:10085000A0EB0800022876D820688007F6D520682B
:1008600040F008002060206801E0BBE00CE0296A4D
:1008700020F0F000084320606068E96920F47F40C0
:1008800040EA0120606010E020F001002060FFF7E6
:10089000A3FD804606E000BFFFF79EFDA0EB080029
:1008A0000228D8D820688007F6D42878C00740D01E
:1008B000082E18D00C2E01D1032F14D06868B0F583
:1008C000803F17D0B0F5A02F206817D020F48030DB
:1008D0002060206820F4802020606868E0B1FFF785
:1008E0007BFD804614E02068800322D568680028DC
:1008F00078D01EE0206840F48030EDE740F480209E
:100900002060F7E7FFF768FDA0EB08006428A2D895
:1009100020688003F6D50CE0FFF75EFD804605E019
:10092000FFF75AFDA0EB0800642894D820688003E4
:10093000F6D4287880073BD5042E11D00C2E04D194
:10094000022F01E036E1A1E00AD0E8680028206823
:100950001ED040F480702060FFF73EFD07460CE09B
:10096000206840050CD5E8680028C1D008E000BF29
:10097000FFF732FDC01B022893D820684005F7D549
:100980006068297C20F0F85040EA016060600FE068
:1009900020F480702060FFF71FFD074605E000BFD0
:1009A000FFF71AFDC01B022870D820684005F7D455
:1009B0002878000729D568690028D4F8940012D057
:1009C00040F00100C4F89400FFF706FD074604E07C
:1009D000FFF702FDC01B022858D8D4F89400800706
:1009E000F6D512E0EDE020F00100C4F89400FFF726
:1009F000F3FC074605E000BFFFF7EEFCC01B022832
:100A000044D8D4F894008007F6D42878400768D5F5
:100A1000A06D0027C00008D4A06D40F08050A065F4
:100A2000A06D012700F08050009052480168C90570
:100A300012D40168814641F480710160FFF7CCFC5B
:100A4000804605E0FFF7C8FCA0EB080002281DD88F
:100A5000D9F80000C005F5D5A868012817D00528E9
:100A6000D4F8900018D020F00100C4F89000D4F819
:100A7000900020F0040000BFC4F89000A86841F284
:100A80008839D0B1FFF7A8FC804611E06BE0D4F8BC
:100A9000900040F00100EFE740F00400C4F890003F
:100AA000F5E700BFFFF798FCA0EB080149455AD8CD
:100AB000D4F890008007F5D50EE0FFF78DFC804656
:100AC00006E000BFFFF788FCA0EB0801494570D89D
:100AD000D4F890008007F5D41FB1A06D20F08050AD
:100AE000A065A86AF0B30C2E6BD00228206820F015
:100AF0008070206004D0206810F0205F47D04AE06A
:100B0000FFF76AFC064604E0FFF766FC801B02283C
:100B10004FD820688001F7D4286BE96A00011038AB
:100B20000843696BAA6B0902120941EA4241084372
:100B3000A98F114A490802EB4151084395F840102A
:100B40004908120102EB41610843E060206840F06F
:100B500080702060E06840F08070E060FFF73CFC4F
:100B6000054610E02BE024E00010024024150008A8
:100B700004000020007000400000E0FFFFF72CFCA4
:100B8000401B022815D820688001F7D517E0E068DF
:100B900020F00300E060E0680B490840E060FFF7E8
:100BA0001BFC054608E000BFFFF716FC401B0228AF
:100BB00002D90320BDE8F88320688001F4D4002026
:100BC000F8E70120F6E70000FFFFEEFE4FF0E0211E
:100BD0000428086903D020F004000861704740F041
:100BE0000400FAE710B5FFF7FDFA044C206000F0AE
:100BF00055FC2068BDE81040FFF7F8BA0C00002053
:100C000010B5401EB0F1807F01D3012010BD4FF020
:100C1000E02460610F21601700F00DF80020A06152
:100C200007202061002010BD10B5FFF7DBFF10BDCD
:100C3000FEE7FEE770470907090E002806DA00F014
:100C40000F0000F1E02080F8141D704700F1E02053
:100C500080F8001470477047F8B51C4D0646002414
:100C6000A86DC00002D5FFF793FC0DE0A86D40F021
:100C70008050A865A86D00F080500090FFF788FCB8
:100C8000A96D21F08051A965B0F5007F04D0802EB8
:100C900007D94FF003040AE0802E08D9A02E01D80E
:100CA00004E001D1022402E0702E00D101240848A2
:100CB000016821F0070121430160006800F007008E
:100CC000A04201D00120F8BD0020F8BD0010024074
:100CD00000200240704710B5FFF784FBBDE81040CC
:100CE000FFF7A2BF10B596B001210804CDE90010AE
:100CF000022003240A90CDE90B4114210D91072114
:100D0000CDE90E1010906846FFF72EFD00B1FEE70A
:100D10000F20CDE9110400201390149015900421A8
:100D200011A8FFF73DFC00B1FEE74FF40070FFF79C
:100D3000FBFB00B1FEE7FFF7BFFC4FF47A71B0FB9D
:100D4000F1F0FFF75DFF0420FFF740FF002211469E
:100D5000501EFFF7B7FB16B010BD00000D4801682C
:100D600041F4700101600C48016841F0010101602B
:100D7000002181600268094B1A4002608214C2603F
:100D8000026822F48022026081610249C003803936
:100D90000860704788ED00E000100240FFFFF6EAAF
:100DA000FEE70000002807D00E4910F0FF0F04D026
:100DB00051FA80F00078401C704710F47F4F04D047
:100DC000C0F30720085C0930704710F47F0F04D08F
:100DD000C0F30740085C1130704701EB10600078E9
:100DE000193070476415000802E008C8121F08C1D6
:100DF000002AFAD170477047002001E001C1121F9C
:100E0000002AFBD1704700000E4810B5C16C86B0B7
:100E100041F00201C164C06C0B4C00F0020005906F
:100E20000420009001200190022002900390694666
:100E30002046FFF7E7F9002204212046FFF7C7FA12
:100E400006B010BD00100240000400482DE9F0413A
:100E5000114C25682C6806E0E668964202D1267A95
:100E60008E4202D02468A542F6D10B4EA542766888
:100E7000334406D02CB12046636100F0E5F82046EB
:100E800004E001724361C2600060406000F02AFB30
:100E90000020BDE8F08100001000002070B50D4674
:100EA0000446202812D2FFF79DF9094951F8242061
:100EB000536A2B43536251F824104A6905490B6861
:100EC0001A430A60FFF792F9002070BDFF2070BD41
:100ED000B8000020240000202DE9F0411D461646F0
:100EE0000F468046FFF77EF904462B4632463946C8
:100EF0004046FFF7ABFF2046FFF778F90020BDE83A
:100F0000F08100F055B800002DE9F041FFF76AF9D3
:100F1000224E03463068FFF745FF471E202F01D9B8
:100F2000184636E01E4800EBC7051846FFF75EF985
:100F3000002D0AD02C68AC4209D16968A14206D1C3
:100F400001203168B84081433160BDE8F081154F20
:100F500014E0ACB1606A20B1A16811B120463C60D8
:100F600088472068A84208D1FFF73CF962693168D8
:100F700091433160FFF73AF902E00446AC42E8D110
:100F8000AC42E2D1FFF72EF961684A6931689143BA
:100F90003160BDE8F041FFF729B9000024000020CE
:100FA0003801002008000020FFF7AEFFFCE700003A
:100FB00070B5114A002000BF02EBC0010960401C5F
:100FC000C0B249602028F7D3002000F0A1F800202B
:100FD00000F0C0F9002000F00BFA074D0024803D1E
:100FE00055F8240010B1016A01B18847641CE4B2CD
:100FF000202CF5D370BD0000380100200249486064
:10100000007C0121FFF74ABF28000020064910B5E7
:101010004860017C02231A460448FFF75DFFBDE8E3
:101020001040FFF7F1BE00005800002050020020E1
:101030000349032304224860017C0248FFF74CBFA8
:101040008800002068020020D0E900124A60116088
:10105000006040607047000086B0FFF7CBF9FFF7F3
:1010600041FE2848C16C41F08001C164C16C01F0AF
:1010700080010591C16C41F01001C164C06C224C2B
:1010800000F010004FF460750590012229462046BB
:10109000FFF79DF90120CDE9005002900220039056
:1010A00069462046FFF7AEF8FFF72BFFFFF77CFFFE
:1010B0004FF48075154F6E00012280212046FFF706
:1010C00086F9012229462046FFF781F9012231469F
:1010D0002046FFF77CF93846FFF78EF80022802182
:1010E0002046FFF774F9002229462046FFF76FF9E2
:1010F000002231462046FFF76AF93846FFF77CF8B0
:10110000DAE700000010024000100048FFFF7F00F7
:10111000014800F09BB90000300000202DE9F041AB
:10112000894C8A4D4FF4807660684FF400774FF415
:10113000FA78406AC10723D0002280212846FFF7B1
:1011400046F9012231462846FFF741F90122394686
:101150002846FFF73CF92078401CC0B220700328D5
:101160006068017C02D90A232A0401E04346022276
:101170007748FFF7B1FE6068416A81F00101DFE066
:1011800081071AD5012280212846FFF720F9002285
:1011900031462846FFF71BF9012239462846FFF75A
:1011A00016F9606843460422017C6948FFF794FE03
:1011B0006068416A81F00201C2E041071AD501224C
:1011C00080212846FFF703F9012231462846FFF720
:1011D000FEF8002239462846FFF7F9F860684346D2
:1011E0000822017C5A48FFF777FE6068416A81F067
:1011F0000401A5E001071AD5002280212846FFF747
:10120000E6F8002231462846FFF7E1F80122394688
:101210002846FFF7DCF8606843462022017C4C48F2
:10122000FFF75AFE6068416A81F0080188E0810694
:101230001AD5012280212846FFF7C9F8002231463D
:101240002846FFF7C4F8002239462846FFF7BFF8C2
:10125000606843464022017C3D48FFF73DFE6068E0
:10126000416A81F020016BE041061AD500228021FD
:101270002846FFF7ACF8012231462846FFF7A7F8C9
:10128000002239462846FFF7A2F8606843468022CC
:10129000017C2F48FFF720FE6068416A81F0400121
:1012A0004EE001061AD5002280212846FFF78FF86C
:1012B000002231462846FFF78AF8002239462846A0
:1012C000FFF785F8606843463246017C2048FFF707
:1012D00003FE6068416A81F0800131E0C1051AD5E2
:1012E000012280212846FFF772F801223146284664
:1012F000FFF76DF8012239462846FFF768F8606865
:1013000043460122017C1248FFF7E6FD6068416A0E
:1013100081F4807114E0C00013D501228021284699
:10132000FFF755F8012231462846FFF750F8012211
:1013300039462846FFF74BF86068416A81F08051D2
:101340004162BDE8F0810000280000200010004844
:1013500038020020014800F079B800006000002049
:1013600070B5204C4FF4FA756068416A1E48CA0790
:1013700019D001220421FFF72AF82078401CC0B2BE
:10138000207003286068017C03D90A234FF0805243
:1013900001E02B4602221548FFF79EFD6068416A76
:1013A00081F001011BE08A070FD500220421FFF71D
:1013B0000EF860682B460122017C0C48FFF78CFD7B
:1013C0006068416A81F0020109E0C90008D5002285
:1013D0000421FEF7FCFF6068416A81F080514162A0
:1013E00070BD00005800002000040048500200209A
:1013F000014800F02BB800009000002010B5114CFF
:101400004FF496736068416A4A070BD50121217039
:10141000017C02220C48FFF75FFD6068416A81F0A1
:1014200004010CE089070BD500212170017C042206
:101430000548FFF751FD6068416A81F00201416291
:1014400010BD00008800002068020020124A002120
:1014500052F8213033B1491C2029F9DB202917D05B
:101460000020704742F821000174427C0123934020
:101470004361836913B90A238361C361064B8033D7
:1014800003EBC20253685060C0E900231860E5E72F
:101490004FF0FF3070470000B80000202DE9F04108
:1014A0000E4845686D1C4560FEF79CFE0B4E80465D
:1014B0000C360B4F0AE06069281AB84209D2204660
:1014C000FFF7C2FD207AE168FFF7E8FC3468B44218
:1014D000F1D14046BDE8F041FEF788BE1000002083
:1014E0005034030070B50D490D4D0A46546807E0AD
:1014F0000A68466953699B1B01D0AB4202D311466F
:101500008C42F5D1054A0C3A93685B1C93600A68DB
:101510005060C0E900210860002070BD1C00002060
:10152000503403000000000000000000010203042A
:1015300006070809A0860100400D0300801A060076
:1015400000350C0040420F0080841E0000093D0061
:1015500000127A000024F40000366E010048E80111
:10156000006CDC0200000100020001000300010029
:10157000020001000400010002000100030001005C
:10158000020001000500010002000100030001004B
:10159000020001000400010002000100030001003C
:1015A000020001000600010002000100030001002A
:1015B000020001000400010002000100030001001C
:1015C000020001000500010002000100030001000B
:1015D00002000100040001000200010003000100FC
:1015E00002000100070001000200010003000100E9
:1015F00002000100040001000200010003000100DC
:1016000002000100050001000200010003000100CA
:1016100002000100040001000200010003000100BB
:1016200002000100060001000200010003000100A9
:10163000020001000400010002000100030001009B
:10164000020001000500010002000100030001008A
:10165000020001000400010002000100030001007B
:10166000020001008416000800000020B8000000FD
:10167000E80D00083C170008B8000020C80500006D
:10168000F80D00080000000000093D000000000007
:10169000000000001C00002000000000000000000E
:1016A0001C0000201C0000200100000000000000C1
:1016B0000000000000000000000000001D110008F4
:1016C0000000000000000000000000000300000017
:1016D00000000000FD0F00080000000000000000F6
:1016E000000000000000000000000000611300087E
:1016F00000000000001F00000000000002000000C9
:10170000000000000D1000080200000000000000B2
:10171000000000000000000000000000FD130008B1
:1017200000000000000500000000000001000000B3
:0C17300000000000311000080300000061
:040000050800018965
:00000001FF
